:060000000A128A11E82F2C
:10000C00003406340034003480340C3400340034B2
:10001C00803408340034003400348034103400341C
:10002C00003400341034003400340134FC01FD0180
:10003C008312031307137008F4007108F50072089B
:10004C00F6007308F70010300310F70CF60CF50CE3
:10005C00F40CFF3E031D2A28740893008316031327
:10006C00141C34287008F4007108F5007208F600AE
:10007C007308F70008300310F70CF60CF50CF40CB1
:10008C00FF3E031D4128740883120313930083164B
:10009C000313141C4D28700883120313930083164A
:1000AC000313141C55288312031393019301831615
:1000BC000313141C5D28831203139301831603137B
:1000CC00141C6428831203131308F400F50174083C
:1000DC00F8007508F9007C087804FC007D087904A8
:1000EC00FD00930183160313141C78288312031349
:1000FC001308F400F5017408FA007508FB007A087F
:10010C00F500F4017C087404FC007D087504FD0006
:10011C008F2890288312031307177C08080083127A
:10012C00031307137008F8007108F9007208FA003D
:10013C007308FB0010300310FB0CFA0CF90CF80CD4
:10014C00FF3E031DA1287808803893008316031303
:10015C00141CAC287008F8007108F9007208FA0039
:10016C007308FB0008300310FB0CFA0CF90CF80CAC
:10017C00FF3E031DB92878088312031393008316DE
:10018C000313141CC52870088312031393008316E1
:10019C000313141CCD2874088312031393008316C5
:1001AC000313141CD5287408F8007508F900760898
:1001BC00FA007708FB0008300310FB0CFA0CF90C62
:1001CC00F80CFF3E031DE2287808831203139300FA
:1001DC0083160313141CEE287408F8007508F90034
:1001EC007608FA007708FB0010300310FB0CFA0CB1
:1001FC00F90CF80CFF3E031DFB287808831203133F
:10020C00930083160313141C07297408F80075084F
:10021C00F9007608FA007708FB0018300310FB0C85
:10022C00FA0CF90CF80CFF3E031D14297808831204
:10023C000313930083160313141C20292529262944
:10024C008312031307170800831203139412403010
:10025C008316031394008312031394019416E03055
:10026C00D8000130D9001030CC000130CD00243042
:10027C00CA000230CB002B30CE000030CF00E6019C
:10028C00E7012930D0000030D1002430D2000130F9
:10029C00D3000C30D4000030D500E801E9010A305D
:1002AC00D6000030D7000530FC007C08DA00EB01EA
:1002BC00DB01DB0A87133430FD00F130FC00FC0B52
:1002CC006529FD0B65296A298312031387173430BE
:1002DC00FD00F130FC00FC0B7129FD0B7129762916
:1002EC0000300A128A15B7260A128A110D30FD0049
:1002FC00FB30FC00FC0B8029FD0B80298529443048
:10030C000A128A15B7260A128A110D30FD00FB302D
:10031C00FC00FC0B8F29FD0B8F29942962300A12EB
:10032C008A15B7260A128A110D30FD00FB30FC002D
:10033C00FC0B9E29FD0B9E29A32968300A128A15F5
:10034C00B7260A128A110D30FD00FB30FC00FC0BA5
:10035C00AD29FD0BAD29B22940300A128A15B726FA
:10036C000A128A110D30FD00FB30FC00FC0BBC297D
:10037C00FD0BBC29C1290030F3001030F2002430F1
:10038C00F1000030F0000A128A15AD270A128A110A
:10039C007C3A0319D929FF30831203139300831677
:1003AC000313141CD5290030F3001030F200243054
:1003BC00F1006C30F000F4010A128A150D270A12B4
:1003CC008A110030F3001030F2002430F100C430F8
:1003DC00F000F4010A128A150D270A128A11003056
:1003EC00F3001030F2002430F1003030F0008312B2
:1003FC0003135908F501F5075808F401F4070A121C
:10040C008A155B270A128A110030F3001030F200B3
:10041C002430F1002830F000831203134B08F5014F
:10042C00F5074A08F401F4070A128A155B270A1229
:10043C008A110030F3001030F2002430F1002C301F
:10044C00F000831203134F08F501F5074E08F40171
:10045C00F4070A128A155B270A128A110030F3007E
:10046C001030F2002430F1003430F000831203130A
:10047C006708F501F5076608F401F4070A128A15F6
:10048C005B270A128A110030F3001030F20024307E
:10049C00F1003830F000831203135108F501F50711
:1004AC005008F401F4070A128A155B270A128A1104
:1004BC000030F3001030F2002430F1004430F00032
:1004CC00831203134D08F501F5074C08F401F407EA
:1004DC000A128A155B270A128A110030F3001030B9
:1004EC00F2002430F1003C30F00083120313530867
:1004FC00F501F5075208F401F4070A128A155B2777
:10050C000A128A110030F3001030F2002430F1008E
:10051C004030F000831203135508F501F507540819
:10052C00F401F4070A128A155B270A128A110030AB
:10053C00F3001030F2002430F1004830F000831248
:10054C0003136908F501F5076808F401F4070A12AA
:10055C008A155B270A128A110030F3001030F20062
:10056C002430F1004C30F000831203135708F501CE
:10057C00F5075608F401F4070A128A155B270A12CC
:10058C008A110030F3001030F2002430F10060309A
:10059C00F000831203136B08FC007C08F4000A12B1
:1005AC008A150D270A128A110030F3001030F20060
:1005BC002430F1006830F000831203135B08FC0058
:1005CC007C08F4000A128A150D270A128A110030D1
:1005DC00F3001030F2002430F100F030F000F401A0
:1005EC000A128A150D270A128A110030F3001030F6
:1005FC00F2002530F1000430F0000030F40000303F
:10060C00F5000A128A155B270A128A110030F300D2
:10061C001030F2002430F1007C30F000F4010A12AA
:10062C008A150D270A128A110030F3001030F200DF
:10063C002430F1008030F000F4010A128A150D27E5
:10064C000A128A110030F3001030F2002430F1004D
:10065C008430F0000030F4006030F5000A128A1586
:10066C005B270A128A11003083120313B300103077
:10067C00B2000030B1000030B0003308F300320893
:10068C00F2003108F1003008F0000230F7000030C1
:10069C00F6000030F5000030F4000A128A119520A3
:1006AC000A128A11043083120313B00700300318A6
:1006BC000130B107003003180130B20700300318C5
:1006CC000130B3073308F3003208F2003108F100AF
:1006DC003008F0002630F7000030F6000030F5004E
:1006EC000730F4000A128A1195200A128A1104307C
:1006FC0083120313B007003003180130B107003028
:10070C0003180130B207003003180130B307330867
:10071C00F3003208F2003108F1003008F00000302C
:10072C00F7000030F6000030F5000030F4000A123B
:10073C008A1195200A128A110030F3001030F20051
:10074C002430F1005030F0000030F7000030F6009B
:10075C000030F5000230F4000A128A1195200A12BA
:10076C008A11003083120313B3001030B200003032
:10077C00B1000030B0000030F3001030F200243033
:10078C00F1009030F0000A128A15AD270A128A1176
:10079C00FC007C0883120313EA006A088038FC0012
:1007AC007C08EA000030F3001030F2002430F10035
:1007BC009030F0006A08FC007C08F4000A128A15DC
:1007CC000D270A128A110030F3001030F200243089
:1007DC00F1006C30F000831203135A08FC007C0803
:1007EC00F4000A128A150D270A128A1183120313B8
:1007FC00B6017F303602031808000030F3001030C9
:10080C00F2002430F100C430F0003608FC007C0803
:10081C00F4000A128A150D270A128A111A30FD00EB
:10082C00F830FC00FC0B182CFD0B182C00000130D0
:10083C00FC007C0883120313B607FF2B00308312D5
:10084C000313C9000030C8000030C7000030C600D8
:10085C000030F3001030F2002430F100E430F000EE
:10086C000A128A111C200A128A1183120313B60071
:10087C00B7013608E0003708E1000030F300103013
:10088C00F2002430F100E830F0000A128A111C202A
:10089C000A128A1183120313B600B7013608E2005C
:1008AC003708E30061086306031D5E2C60086206CE
:1008BC00031D2E2C6308E501E5076208E401E4073B
:1008CC0000305F06031D742CFF305E06031D742C74
:1008DC0000305D06031D742C00305C0603197E2C61
:1008EC000030DF00FF30DE000030DD000030852CF2
:1008FC000030DF00FF30DE00FF30DD00FF30DC00B9
:10090C000030B6008030B7001030B8000030B900AD
:10091C006408BA006508BB00BC01BD013A08B60703
:10092C003B0803183B0F9B2C9C2CB7073C08031867
:10093C003C0FA12CA22CB8073D0803183D0AB9079F
:10094C003908F3003808F2003708F1003608F000D7
:10095C00FF30F700FF30F600FF30F5000030F400F8
:10096C000A128A1195200A128A1183120313650840
:10097C00F101F1076408F001F0070430B600360805
:10098C00F2000A128A15D3260A128A1171088312F0
:10099C000313E501E5077008E401E4070030B60035
:1009AC008030B7001030B8000030B9006408BA00CD
:1009BC006508BB00BC01BD013A08B6073B0803182B
:1009CC003B0FE92CEA2CB7073C0803183C0FEF2C23
:1009DC00F02CB8073D0803183D0AB9073908F30095
:1009EC003808F2003708F1003608F0000230F70042
:1009FC000030F6000030F5000030F4000A128A11C5
:100A0C0095200A128A11831203136508F101F1076C
:100A1C006408F001F0070430B6003608F2000A1240
:100A2C008A15D3260A128A11710883120313E50161
:100A3C00E5077008E401E4070030B6008030B70029
:100A4C001030B8000030B9006408BA006508BB006B
:100A5C00BC01BD013A08B6073B0803183B0F372D04
:100A6C00382DB7073C0803183C0F3D2D3E2DB80719
:100A7C003D0803183D0AB9073908F3003808F2009D
:100A8C003708F1003608F0002630F7000030F60089
:100A9C000030F5000730F4000A128A1195200A1272
:100AAC008A11831203136508F101F1076408F00140
:100ABC00F0070430B6003608F2000A128A15D32665
:100ACC000A128A11710883120313E501E5077008F5
:100ADC00E401E4070030B6008030B7001030B800F5
:100AEC000030B9006408BA006508BB00BC01BD0148
:100AFC003A08B6073B0803183B0F852D862DB70720
:100B0C003C0803183C0F8B2D8C2DB8073D0803189F
:100B1C003D0AB9073908F3003808F2003708F1002C
:100B2C003608F0003408BE003508BF00C001C10112
:100B3C0000303E04F40000303F04F5000030400467
:100B4C00F6000D304104F7000A128A1195200A12A2
:100B5C008A11831203136508F101F1076408F0018F
:100B6C00F0070430B6003608F2000A128A15D326B4
:100B7C000A128A11710883120313E501E507700844
:100B8C00E401E4070030B6008030B7001030B80044
:100B9C000030B9006408BA006508BB00BC01BD0197
:100BAC003A08B6073B0803183B0FDD2DDE2DB707BF
:100BBC003C0803183C0FE32DE42DB8073D0803183F
:100BCC003D0AB9073908F3003808F2003708F1007C
:100BDC003608F0001F30F7000030F6000030F5004A
:100BEC000230F4000A128A1195200A128A1183121B
:100BFC0003136508F101F1076408F001F0070430F4
:100C0C00B6003608F2000A128A15D3260A128A1187
:100C1C00710883120313E501E5077008E401E4078A
:100C2C000030B6008030B7001030B8000030B9008A
:100C3C006408BA006508BB00BC01BD013A08B607E0
:100C4C003B0803183B0F2B2E2C2EB7073C08031820
:100C5C003C0F312E322EB8073D0803183D0AB90758
:100C6C003908F3003808F2003708F1003608F000B4
:100C7C0000305C04F40000305D04F50000305E04CC
:100C8C00F60004305F04F7000A128A1195200A124C
:100C9C008A11831203136508F101F1076408F0014E
:100CAC00F0070430B6003608F2000A128A15D32673
:100CBC000A128A11710883120313E501E507700803
:100CCC00E401E4070030B6008030B7001030B80003
:100CDC000030B9006408BA006508BB00BC01BD0156
:100CEC003A08B6073B0803183B0F7D2E7E2EB7073C
:100CFC003C0803183C0F832E842EB8073D080318BC
:100D0C003D0AB9073908F3003808F2003708F1003A
:100D1C003608F0002808BE002908BF002A08C000C9
:100D2C002B08C1002008C2002108C3002208C400FF
:100D3C002308C5000F300310C20DC30DC40DC50D23
:100D4C00FF3E031DA12E4208BE044308BF04440805
:100D5C00C0044508C10400303E04F40000303F04D8
:100D6C00F50000304004F60040304104F7000A1250
:100D7C008A1195200A128A11831203136508F10156
:100D8C00F1076408F001F0070430B6003608F200F1
:100D9C000A128A15D3260A128A11710883120313B8
:100DAC00E501E5077008E401E4070030B600803087
:100DBC00B7001030B8000030B9006408BA006508FC
:100DCC00BB00BC01BD013A08B6073B0803183B0F3A
:100DDC00F02EF12EB7073C0803183C0FF62EF72E19
:100DEC00B8073D0803183D0AB9073908F30038085D
:100DFC00F2003708F1003608F0002130F70000301F
:100E0C00F6000030F5000030F4000A128A1195202B
:100E1C000A128A11831203136508F101F1076408A1
:100E2C00F001F0070430B6003608F2000A128A15F9
:100E3C00D3260A128A11710883120313E501E50700
:100E4C007008E401E4070030B6008030B7001030C1
:100E5C00B8000030B9006408BA006508BB00BC01DA
:100E6C00BD013A08B6073B0803183B0F3E2F3F2F36
:100E7C00B7073C0803183C0F442F452FB8073D0813
:100E8C0003183D0AB9073908F3003808F20037088F
:100E9C00F1003608F0000030F7000030F6000030AA
:100EAC00F5000030F4000A128A1195200A128A11FA
:100EBC00831203136508F101F1076408F001F007D0
:100ECC000430B6003608F2000A128A15D3260A122C
:100EDC008A11710883120313E501E5077008E40118
:100EEC00E4070030B6008030B7001030B800003096
:100EFC00B9006408BA006508BB00BC01BD013A0822
:100F0C00B6073B0803183B0F8C2F8D2FB7073C08F7
:100F1C0003183C0F922F932FB8073D0803183D0A76
:100F2C00B9073908F3003808F2003708F100360821
:100F3C00F000FF30F700FF30F600FF30F500013015
:100F4C00F4000A128A1195200A128A1183120313D3
:100F5C006508F101F1076408F001F0070430B600F0
:100F6C003608F2000A128A15D3260A128A11710861
:100F7C0083120313E501E5077008E401E407003070
:100F8C00F3001030F2002430F100E830F000650876
:100F9C00F501F5076408F401F4070A128A155B27BA
:100FAC000A128A11063083120313B8001330B700EB
:100FBC00B130B600B60BE02FB70BE02FB80BE02F1B
:100FCC00E72F080083135C3084006C300A128A15FA
:100FDC009E260A128A113630FD000030FE000630C3
:100FEC00FF00203084000A128A15AA2683010A12F7
:040FFC008A15F02E34
:101D3C0064008001840A04060319003404069F2EF3
:101D4C007E088A007F088200A6260A128A15800067
:101D5C00840A04087D0603190034FF0A0319FE0ADD
:101D6C00AA2EF00083120313071370089300831636
:101D7C000313141CBD2E8312031393018316031338
:101D8C00141CC42E83120313930183160313141C07
:101D9C00CB2E831203130717080072087007F30089
:101DAC0071080318710AF400103074020030031922
:101DBC007302031CE92E7308003EF3007408031829
:101DCC00013EF03EF4007408F101F1077308F001D4
:101DDC00F00708007030831603138F048316031763
:101DEC0088018316031307168712871107138713AD
:101DFC0083120313071787170A128A112A210A1252
:101E0C008A150A128A1124240A128A15072F8312A2
:101E1C0003130713112F122F7008F5007108F60029
:101E2C007208F7007308F80010300310F80CF70C68
:101E3C00F60CF50CFF3E031D1B2F75088038831222
:101E4C000313930083160313141C282F7008F5003A
:101E5C007108F6007208F7007308F80008300310D8
:101E6C00F80CF70CF60CF50CFF3E031D352F75081E
:101E7C0083120313930083160313141C412F700851
:101E8C0083120313930083160313141C492F740835
:101E9C0083120313930083160313141C512F562F14
:101EAC00572F83120313071708008312031307130A
:101EBC007008F6007108F7007208F8007308F90052
:101ECC0010300310F90CF80CF70CF60CFF3E031D48
:101EDC00672F76088038930083160313141C722F17
:101EEC007008F6007108F7007208F8007308F90022
:101EFC0008300310F90CF80CF70CF60CFF3E031D20
:101F0C007F2F760883120313930083160313141C7C
:101F1C008B2F700883120313930083160313141C66
:101F2C00932F740883120313930083160313141C4A
:101F3C009B2F750883120313930083160313141C31
:101F4C00A32FA82FA92F8312031307170800F8013A
:101F5C008312031307137008F4007108F50072085C
:101F6C00F6007308F70010300310F70CF60CF50CA4
:101F7C00F40CFF3E031DBA2F740893008316031351
:101F8C00141CC42F7008F4007108F5007208F600D8
:101F9C007308F70008300310F70CF60CF50CF40C72
:101FAC00FF3E031DD12F7408831203139300831675
:101FBC000313141CDD2F7008831203139300831674
:101FCC000313141CE52F83120313930183160313BD
:101FDC00141CEC2F83120313930183160313141C8C
:101FEC00F32F831203131308F4007408F800071777
:041FFC007808080059
:02400E00F7FBBE
:00000001FF
